:10000000008000206D170000AD170000AF17000042
:1000100000000000000000000000000000000000E0
:10002000000000000000000000000000B117000008
:100030000000000000000000B3170000B51700002A
:100040004D0B0000B7170000A1110000A522000011
:10005000B717000000000000B7170000B717000036
:10006000B7170000B7170000B7170000B717000058
:10007000B7170000B7170000B7170000B717000048
:10008000B717000001050000B7170000B717000000
:10009000DD050000B7170000B7170000B717000014
:1000A000B7170000B71700000000000000000000B4
:1000B0000000000000000000000000000000000040
:1000C00010B5064C2378002B07D1054B002B02D02E
:1000D000044800E000BF0123237010BD8000002011
:1000E00000000000F8380000044B10B5002B03D0CE
:1000F0000349044800E000BF10BDC04600000000F6
:1001000084000020F8380000402292029A1A924699
:100110007047C046174B002B00D1134B9D46FFF78D
:10012000F3FF00218B460F461348144A121A00F0C1
:1001300065F80E4B002B00D098470D4B002B00D0DC
:1001400098470020002104000D000D48002802D02F
:100150000C4800E000BF00F02DF82000290001F05D
:100160000FFA00F011F8C04600000800000000007F
:100170000000000000800020800000209007002088
:100180000000000000000000084B10B50400002B28
:1001900002D0002100E000BF054B1868836A002BE5
:1001A00000D09847200000F031F8C0460000000061
:1001B0007836000070B500260C4D0D4C641BA41061
:1001C000A64209D1002603F04BFA0A4D0A4C641BE3
:1001D000A410A64205D170BDB300EB589847013674
:1001E000EEE7B300EB5898470136F2E778000020BD
:1001F00078000020780000207C0000200300821896
:10020000934200D1704719700133F9E7FEE7C04609
:100210000378012B01D1014A137070479E00002022
:10022000F0B51B4E0500337889B0002B03D0194B75
:100230001B78834229D06C462200174B83CB83C2A4
:1002400083CB83C203CB03C20023092223750B2374
:10025000009201930A220823104F02920393104B3D
:100260003800A36100F092FD0022002D0BD0210088
:10027000380000F0E5FC002803D101233370054B62
:100280001D7009B0F0BD074AF1E70020F9E7C0464C
:100290009D0000209C0000207C36000064000020AF
:1002A00000E0D7011102000010B50120FFF7B8FFF0
:1002B00010BDC046F0B5C64600B51B4C80460020B8
:1002C0000F00A66800F012FCA26863682568D318C6
:1002D00001335B1B012B07D8002B18D1002000F045
:1002E0000DFC80BCB846F0BD6B1C0020236000F004
:1002F00005FC07214346012019403540C90002355D
:100300000143BF02AD00394364196160E9E7292167
:10031000064B9B020B43691C15400235AD00216062
:1003200064196360DAE7C046A00000209C36000034
:10033000F0B54E46DE4657464546E0B5584E8BB0C2
:10034000736832689A4200D17CE00322B0685D1C79
:1003500003409C1CA300F3185F6813003B403A4223
:100360000ED1BB0D3F04BF0DDB195B195D1C0340B3
:100370009C1CA300F3185F6813003B403A42F0D086
:10038000022B2FD0BB0A9C46BA0504AB9846120F2D
:100390000DD004AB00249846611901400231890058
:1003A00071184968013402C3A242F5D8AD188223FE
:1003B0000092DB00B806F458624643460021400F25
:1003C000A04700280CD075603068451B681E854129
:1003D000E8B20BB0F0BCBB46B246A946A046F0BDA1
:1003E0007568F1E76B1C98463B049B0D9B4601002A
:1003F000434605400235AD009943751901316A68DD
:100400008900BD0D8D421FD9002941D01840CBB2C3
:10041000E91A99460C230330800084469A46B44476
:10042000C9B2B244534602934B46019363460391CB
:100430001C4900937358B806994600215B46400F4B
:10044000C84715E00020C4E7B9064B0F9C46434659
:1004500000211840033080000391029130181149A7
:100460000090019573586046994600215B46C84745
:10047000A84209D00C4B8005000C1F40A400074384
:100480003419756867609FE7C51CAD0845449AE755
:10049000EBB2994600239A460C339C46B444C1E71C
:1004A000A0000020140400003F00FFFF002300B55F
:1004B00085B001AA9060002103481380536000F0CA
:1004C00005F805B000BDC04601400000012010B590
:1004D0000849FFF7EFFEFFF7E7FEFFF729FF0028C7
:1004E000FBD1BFF34F8F044B044ADA60BFF34F8F49
:1004F000C046FDE7A836000000ED00E00400FA0564
:10050000A021F0B50023C6462B4A490000B5535040
:100510000431535004315350043153504C3953502B
:1005200004315350254B1B68002B36D0244900253D
:100530005458244A00271268234EA41A2402240A7D
:1005400003E04346002B19D043461A68A24215D84F
:10055000A41AAD18DA6990461A7C002AF1D05A69BB
:1005600099691F743368002B1AD01000984700282F
:10057000E7D0FFF79BFF4346002BE5D11349144A10
:100580000B7812789A420ED0124A9B009D5080211F
:100590008023114A5B004903D15080BCB846F0BDAE
:1005A00008009047CDE70132D3B2022B01D00B7087
:1005B000EAE700230B70E7E700100140D8040020B1
:1005C00004050000D4040020B8040020D104002059
:1005D000D0040020C804002000E100E0F0B5DE46B1
:1005E00057464E464546E0B5C44BC54A9B46C549AD
:1005F0001B688DB0059309781378994200D16DE19D
:100600000133DBB2022B00D166E11370BE4A9B00BE
:100610009D585A460126059B5B191B021B0A009335
:100620001360BA4B9A461978B94B1B68019353462D
:100630005B780293994200D13AE253465B68009896
:10064000039353469B780B9000200693B14B0027F1
:100650001A78844607920A920A000893019B049034
:1006600050008018C0008146039C0132A046069CC1
:10067000D2B2141B601E8441484664422240039C4F
:10068000C844205C022800D1EEE0032808D1002BEA
:1006900006D060461874DB69002BFAD10120049063
:1006A00002988242DCD1002F00D06AE1049A002A2D
:1006B00008D0974A1360019A0193D01A421E9041C4
:1006C000C2B204920024002E00D00CE10023A44604
:1006D00098460593634600270198002B2DD063466A
:1006E000DD695C68AC469A68009D8B4E651B2D02E7
:1006F0002D0AB54251D80124AA181A605F609F6084
:100700001C74DF61002857D004680500944205D3AB
:1007100060E02E68964200D3C6E03400A946ED6939
:100720000992121B002DF4D11A604A46DD61D36193
:10073000030018006346002BD1D1029B994200D1DF
:100740001AE14B005B18069A0131C9B28A1A541E8D
:10075000A241039EDB00F518F35C52421140012BCD
:100760003FD16B681E7C002E3BD1AC68B1465C600B
:10077000EA689A602E69DE606D699D6101250595C4
:10078000079D002DB0D04C460595009D624E651B1F
:100790002D025C602D0AB542ADD9009D2C1B2402B0
:1007A000240A94420CD2121B01241A605F609F60DD
:1007B0001C74DF610028A7D1012218009046B9E718
:1007C00001221F605F609F601A74DF610028F3D010
:1007D00000220468A21A02600122D8619046180023
:1007E000A8E7029B9942ACD1534619704346002BAF
:1007F00000D1BBE0464B1860019B984202D1049B9C
:10080000002B27D0002800D11EE1444A0368444849
:10081000444C8158009A25788A1A1202120A03322F
:10082000002D00D1B6E0934254D3009AA8249446F8
:1008300063443B481B021B0A384DE40003514259F4
:100840005B1A521A1202120A1B0203321B0A9A4244
:1008500000D9C5E00023089A13700DB0F0BCBB4668
:10086000B246A946A046F0BD404640688146002BEE
:1008700000D115E7834200D1DFE018000400C06911
:10088000002800D10CE78145F8D10994A14515D085
:100890000468C069A046099CE061002800D1FFE619
:1008A000046844440460FBE6A619099C361B2E60CC
:1008B0001A604A46DD61D36103003AE7DB69002B29
:1008C00000D1A7E0484600680124804648460494C9
:1008D000C069E5E71300A8E7002396E6059B00251D
:1008E000002600939DE6019B002B00D1EDE0002740
:1008F00000220020B84689462BE0C046D4040020E0
:10090000D0040020D1040020C8040020BC04002032
:10091000D8040020C4040020FEFF7F00040500006E
:1009200000100140C50400204246D968ED1BC019E3
:100930001A60DF69002907D0DC611C00059A996004
:1009400012181202120A5A60002F00D16EE0320013
:100950003B001F68AF42E7D94946002A02D05C4AF3
:10096000019313607D1B1D600496AFE6049B019804
:10097000002B00D16EE745E7059B002B00D033E745
:1009800034E75C4608980A9A02700B980792206038
:1009900000908BE68025D1266D02B6008551403E41
:1009A0008551C02780264B4DB6027F00EE512E6048
:1009B000012505604848494F06682F20C046C046BB
:1009C000C046C046C046C046C046C046BE4200D033
:1009D000C0460138F2D12570934200D325E779E76C
:1009E00043593E4903513C4B1A682F23C046C04629
:1009F000C046C046C046C046C046C0468A4200D037
:100A0000C046013BF2D180238021324A5B0089023B
:100A1000D1501FE70124324B01279C6000240123A1
:100A20000B94013404930A94002331E7284B494680
:100A30001F6000230496019348E6DB690990002BB0
:100A4000E8D00124049423E780218023214A8902ED
:100A5000D1508023D2210125214A5B0289005350C5
:100A6000403953501C4B556019682F231B4C1E00F6
:100A7000C046C046C046C046C046C046C046C04646
:100A8000A14200D0C046013EF2D195605A461060A6
:100A9000C046C046C046C046C046C046C046C04626
:100AA000A14200D0C046013BF2D10E4B1870D1E6F6
:100AB00053465B68039353469B7806930A4B08930F
:100AC0001B78079300230493FCE51C000496FDE5C6
:100AD000D804002000E100E06C0000200024F400B5
:100AE00000100140C5040020C404002072B6024A70
:100AF0001368013313607047DC040020034A136855
:100B0000013B1360002B00D162B67047DC0400206B
:100B1000A02303220B49DB055A5004315A500A49DD
:100B20005A5004315A50A1228021D2008903995091
:100B30008021C903995080210904995080214904DA
:100B400099507047540700005C07000010B51A4B1D
:100B50001A68002A14D0002280211A60C2220123C0
:100B6000164CC90592008B506370A368002B07D008
:100B70001A6800205B68A2609847A368002BF7D131
:100B80000F4B1A68002A15D000221A608022C22357
:100B900002219B00D205D1500123084CA370236988
:100BA000002B07D01A6801205B68226198472369EF
:100BB000002BF7D110BDC04600010040E00400202A
:100BC00004010040F0B500281EDB1B4B84089C4646
:100BD0000323C2B21840FC331F00C026C0008901A5
:100BE00087400B408340A4006444B600A559BD4330
:100BF0002B43A3511F23C0211A401E3B93400E4A92
:100C0000490053501360F0BD0C4C0325A4460F233C
:100C1000FF240340C2B228402500C000890185405E
:100C20000C408440083B9B089B006344DE69AE4354
:100C30003443DC61DEE7C04600E100E000ED00E0A7
:100C4000F8B5CE46474680B507794A4DFE00F31BFE
:100C50009B00EB18DB7E04009146002B00D087E060
:100C60000B685A1C0DD001209840A1220300A0203F
:100C7000D200C005835003220B68C133FF339B00B1
:100C80001A504B685A1C06D0A0200022C133FF33F3
:100C90009B00C0051A5020688A69374BC250087DF6
:100CA0004B7D22680343354813500A6823689446F5
:100CB00033484A681A50624632481A500B7D012B5D
:100CC0002FD04A46F31B9B00E81842600A69EA509D
:100CD0004B46002B12D08E22002320685200097F41
:100CE0008350206828328350C1232068264A9B0005
:100CF000C2502368180B40B2FFF764FFA023042101
:100D00002268DB00D15000230020F61BB600AD198D
:100D10002B76EB820133FF336B83C0BCB946B04600
:100D2000F8BD8B685A1C06D0A0200022C133FF33C7
:100D30009B00C0051A50CB685A1C0ED00120984069
:100D4000A1220300A020D200C00583500322CB685B
:100D5000C133FF339B001A50CB688A6820689446E1
:100D6000A122D2008350A2236246DB00C250A8E732
:100D70000820D2E7F4040020240500006C050000E0
:100D8000140500000C05000080000200F0B5454687
:100D9000DE4657464E46E0B5037900229C46A02326
:100DA0000168DB00CA50634662463349DB0088466F
:100DB0009A1A92004244526883B0002A0DD0C2228F
:100DC0002E4C016892008C50012402682C4DD203F5
:100DD000D20E9440220080242A510268294C012717
:100DE0001659A246284C7F42A34615590C3CA146F1
:100DF000145959460194A224E400A04614595750AE
:100E00005146575049460268575041465750721C48
:100E100006D0A0220220C136FF36B600D205B0505F
:100E20006A1C06D0A0220220C135FF35AD00D205D4
:100E3000A850621C06D0A0220220C134FF34A400B6
:100E4000D205A050019A511C06D0A0200224C13224
:100E5000FF329200C005145062469B1A064A9B005E
:100E6000944600226344DA765A6003B0F0BCBB4675
:100E7000B246A946A046F0BDF40400208402020058
:100E800000E100E00C05000014050000F0B5454647
:100E9000DE4657464E46E0B504000079394DC300A2
:100EA0001B1A9B00EB18987D002828D199608E2191
:100EB0009A75012298822368490026795850236840
:100EC0009A60236858509C46F3009B469B1B9B00EE
:100ED000EB189A686746904640469A8A805C9A8AE0
:100EE000013292B29A82284AB8505A680020002AE9
:100EF00007D0F0BCBB46B246A946A046F0BD1120C3
:100F0000F7E79A7D894694460130FF3019009A8AA6
:100F1000143162451ED2226802E0998A814203D0D0
:100F2000494651580029F8D0998A8142EED00021D3
:100F30004F46D1514746998A795C8A465746998AE5
:100F4000013189B299821049575019009A8A143197
:100F50006245E0D380230A885B009A420FD08E213D
:100F6000226849005358002BFCD001230020D36095
:100F70005B469E1B0023B600AD19AB75B9E70F2089
:100F8000F6E7C046F40400201C0500000279D300F7
:100F90009B1A044A9B00D318987D431E9841C0B207
:100FA0007047C046F4040020F0B5454657464E460B
:100FB000DE4690466A4AE0B5944606790300F000A2
:100FC000851BAD0065446F6883B0002F07D0812476
:100FD000A400A446C22562461C68AD006251604A66
:100FE000801B944680006044C57D002D20D0057E86
:100FF000002D00D0A4E04246016102761D79EA008E
:101000009046574942468C46521B920062445168B2
:10101000002929D01A688121C12300209B00890062
:10102000D15003B0F0BCBB46B246A946A046F0BDC5
:101030004246C1604A49C2758C46457605761D799F
:10104000EA009046521B92006244927E002AD8D158
:10105000922118684900425018681C3942501A6899
:101060000839FF391160CCE7A2201C6840002150EC
:10107000922401902E38FF388246842710006400A5
:10108000A34619687F00924419305C460C59A1466A
:10109000CC59A446019C0E596446002C1CD1002E4C
:1010A00043D02F4942468C460021521B9200624495
:1010B000D1754A46002A41D10F20002EB1D14246B7
:1010C000551B274AAD005419A27E1B68002A41D047
:1010D000012200201A60A4E74C463443A446E0D124
:1010E00054462678002E12D06446CC51A324E40046
:1010F00006780959D468A155544601780131C9B21E
:101100000170017826788E4206D91968BDE7A320C0
:10111000CE51C0000958527E114942468C460021EA
:10112000521B92006244D175C9E74C46002CACD0EA
:1011300043465D1B0A4BAD005C19E675032070E762
:10114000002F0BD01A688121C12389009B00112038
:10115000D15066E7012200205A6062E7112060E763
:10116000F404002010B501790C4ACB005B1A9B00F7
:10117000D3189B7E002B10D1922104684900635044
:1011800004681C39635003680839FF391960007915
:10119000C3001B1A9B00D218917610BDF4040020E6
:1011A000C12330B55E4A9B00D35885B09B0559D505
:1011B00092235B00D158002954D00021D1508121C5
:1011C000E533FF338900D150564B997E002901D178
:1011D00001315160022269460A7090215048C900CD
:1011E0004258425069460392DA7D68460A72DA68CC
:1011F00001920022DA751A760ACB98478E21484A66
:1012000049005358002B0FD0464B9C8A9D7DAC4221
:1012100062D200205050998A9868405C998A0131C6
:1012200089B29982404BD050A2233D4A5B00D158ED
:10123000002915D00021D1503A4B997E002901D0C8
:1012400001211160DA7D002A0AD0002268460121BE
:10125000DA755A7E01700272DA680ACB01929847F9
:1012600005B030BDC1232E4A9B00D3585B07C5D5BE
:10127000842149005358002BC0D02A4BD87D002828
:1012800038D000205050A320C000597E1258D86892
:1012900042545A7ED87D0132D2B25A765A7E824268
:1012A000ACD11A7E002A2AD19A7E002A02D10121CD
:1012B0001B4A5160C2228120194992008000885047
:1012C000002268460121DA755A7E01700272DA68DE
:1012D0000ACB0192984791E700205050002DA3D0EF
:1012E0006A46107015729A689875019268460ACB22
:1012F000984799E75050A321C9005258CEE7DA75B4
:101300001A69D968DA6000226C46587E1A765A76D5
:1013100001322072019168460ACB227098476DE72E
:1013200000200040F40400201C05000010B50378E4
:10133000022B02D0012B00D010BD4068FFF7B6F899
:10134000FAE7C04610B50378002B05D10379012BCD
:1013500003D00122124B1A7010BD124C1248217892
:1013600001F01CF96178114801F018F9A1781048D2
:1013700001F014F9E1780F4801F010F921790E48D5
:1013800001F00CF961790D4801F008F9A1790C48D8
:1013900001F004F9E1790B4801F000F9D9E7C04602
:1013A0001805002010050020C0360000D0360000CF
:1013B000E0360000F0360000003700001037000073
:1013C0002037000030370000C021002330B587B03F
:1013D00049001E4C1E4D03AA118058392370280065
:1013E0000093FF39023300F0B9FD002824D123789F
:1013F000002BFCD00023812104AA23701180280037
:1014000000935839023300F0A9FD00281AD123783F
:10141000002BFCD000238F2105AA23701180280007
:1014200000936639023300F099FD002807D1237834
:10143000002BFCD007B030BDFFF738F8D7E7FFF737
:1014400035F8F4E7FFF732F8E1E7C0461805002069
:101450003C3800000D2010B584B003220021684400
:10146000FEF7CCFE07221E2300920193CD23DB045E
:101470006A46029301230A4C137369460023200035
:10148000084A00F03DFC002806D1200000F054FD81
:10149000FFF79AFF04B010BDFFF708F8F5E7C04664
:1014A0003C38000045130000E021002330B51D4CFE
:1014B00085B01D4D890003AA237011802800009378
:1014C0002921023300F04AFD002822D12378002B85
:1014D000FCD000232370154B02AA1B78292113701E
:1014E00001232800009300F039FD002817D123784C
:1014F000002BFCD000232921237028000C4A08333C
:1015000000F070FE002807D12378002BFCD005B036
:1015100030BDFEF7CBFFD9E7FEF7C8FFF4E7FEF7D3
:10152000C5FFE4E7180500203C3800004037000004
:101530001005002030B58BB004A802000C4B32CB54
:1015400032C232CB32C20B4B0B4A009380235B007A
:101550000193029203936946084AFD3B00F03CFA6E
:10156000002801D10BB030BDFEF7A0FFFAE7C0465E
:10157000243800001C0500201C0600202D1300004C
:10158000F0B5DE46574645464E46E0B5A7B004AB3B
:10159000DF1D30233B70FFF7BBFAFFF7CBFFA02323
:1015A000DB059A4603235146654A00258B500432D9
:1015B0008B50644A8B500C328B500022624BCA50C5
:1015C000FFF748FF614800F0E9FF0123039306ABF2
:1015D00099460EAB984616AB01935D4B5D4C9B460E
:1015E000380000F059FA3B78732B00D177E0742B68
:1015F00000D19CE0632B00D193E0302322003B70AC
:101600004B4643CA43C343CA43C303CA03C323006D
:101610004246203343CB43C243CB43C203CB03C236
:101620002300019A403343CB43C243CB43C203CB95
:1016300003C223001EAA603343CB43C243CB43C241
:1016400003CB03C242466821AB00D058019AD2585E
:10165000029204AA52184946D258CB58002B5DD1A9
:101660003D4B802109048C4651466646CE500028E9
:101670004ED18020384B4004C850029B002B40D1F3
:1016800080215046344B8904C150002A32D1802237
:101690005146314B5205CA505B461A68FA232F490E
:1016A0009B00C046C046C046C046C046C046C04675
:1016B000C0468A4200D0C046013BF2D1039B002BBA
:1016C00013D001352B00083B5A1E934138005B4272
:1016D0001D4000F0E1F93B78732B00D087E72048EC
:1016E00000F05CFFFFF7E0FE87E7013D00D377E7FE
:1016F000072575E7A12380225146DB005205CA5019
:10170000CAE7A12380215046DB008904C150BCE711
:10171000A1238020DB004004C850AEE7A123DB00FA
:101720009FE7104800F03AFF00F0FAF965E701235F
:10173000039A0D489B1A039300F030FF5DE7C04603
:101740005C070000640700007407000044370000D5
:101750006C000020A43700000C0500000024F400F9
:10176000803700008C3700006437000003210A48EE
:1017700002680A430260094802680A430260084995
:10178000084A094B9B1A03DD043BC858D050FBDCC8
:1017900000F012F8FEF7BEFC24050040540500409E
:1017A000043900000000002080000020FEE7FEE772
:1017B000FEE7FEE7FEE7FEE72D4B1B78012B00D08E
:1017C00070472C4B1B681B07FAD12B4AF023126879
:1017D000110019401A4201D0102946D1274A126837
:1017E0001A421FD0F022244B1B681340402B29D0F3
:1017F000F022214B1B681340A02B01D0D02BDFD14E
:10180000F0231E4A12681A42DAD11D4A1368012BCE
:1018100004D01C4B13601368012BFCD1C0221A4B5F
:101820001A60CDE7194B1A4A1A608022194B12022E
:101830001A600F4B1B78012BC2D10E4B1B681B0784
:10184000D0D0BDE70D4B1B681342D1D18022C123FC
:101850000121DB00D205D150054B1B78012BAFD104
:10186000044B1B681B07C3D0AAE73029B6D0B9E7E1
:10187000E00F00F0E40F00F0E80F00F0EC0F00F0D4
:1018800000EC06407593000014EC0640040500408F
:10189000DFFF07C0186C004010B500290ED0002AE9
:1018A0000AD01400531E1C401A4205D18460016006
:1018B0008380C460002010BD0920FCE70E20FAE7F9
:1018C000030010B59C888068DA68121A04209442DC
:1018D00007D30020DA6814401A681155DA6801321B
:1018E000DA6010BD8268C3689A420AD08368828831
:1018F00013400268D35C0B7083680133836000205F
:1019000070470520FCE7C04630B5047885B0012C4F
:1019100005D0022C2ED0002C1DD005B030BD436860
:10192000264D19782800FFF7CBFF002831D1AA688F
:10193000EB689A4205D002AB1870214B02A81B68D5
:101940009847A968AA88EB685B1A9A422FD20122AD
:101950001C4B1A70E1E71C4C1C482100FFF7C2FF2A
:1019600000281ED0032302AA1370154B10001B6819
:101970009847D2E702AB1C70C3680122144915488E
:1019800001930393FFF710FB0D4B02A81B689847C8
:10199000C3E702AB1C700A4B03901B6802A8984770
:1019A000CFE7012221000B48FFF770FAB5E70122CB
:1019B00007490848FFF7F8FAAFE7C04620070020BC
:1019C0001C070020300700204807002034070020B3
:1019D0004407002070000020F0B51E00264B0500D3
:1019E0000C0089B01A60002943D08A88234809680E
:1019F000FFF752FF002801D009B0F0BDA289A1680D
:101A00001F48FFF749FF0028F6D169460B001D4A21
:101A100091CA91C391CA91C311CA11C36B698B61F9
:101A20002B7C0E775A1E93410B756B7C5A1E93418B
:101A30000E225B4213404B756B6800932B68019339
:101A4000EB680293AB6803930F4C104A2000FFF73A
:101A5000F7F80028D0D10E4B18702B680133CBD08B
:101A60002000FFF77FFB012220000A49FFF79CFAC4
:101A7000C2E70720C0E7C0461C070020200700205F
:101A800034070020443800007000002009190000CD
:101A9000300700204407002070B50B4D01000B48B3
:101AA0002E78FFF71FFF0400002E01D1200070BD2B
:101AB00000230122064907482B70FFF775FA00281A
:101AC000F4D0FEF7F3FCF1E73007002020070020F8
:101AD0004407002070000020F8B50E4D01002800DA
:101AE000FFF7EEFE041E01D02000F8BD0A4E3000C4
:101AF000FFF74CFA0028F7D1084F28003900FFF70C
:101B0000F1FE0028F0D1012239003000FFF7BEF9C4
:101B10000400E9E734070020700000204807002097
:101B200010B50248FFF732F9002010BD7000002008
:101B300070B5161E07DD0C008D1820780134FFF7F4
:101B4000CBFFAC42F9D1300070BDC04610B50C00DF
:101B50002000FFF7A1FF0528FAD0012010BDC046E4
:101B6000F0B5DE4657464E464546E0B5822483B082
:101B70000192002264000A5120340A51083C0A51A3
:101B8000143C0A51E23C0255033C0255802292006B
:101B9000012B14D001248C5001220A620A600268D1
:101BA000002A14D0504B8360826800207E33CA50D4
:101BB00003B0F0BCBB46B246A946A046F0BD213CEE
:101BC0008C5001220A620A600268002AEAD11D32A2
:101BD000FF329046143A9146043A92249346DE3AF4
:101BE00023260025924664000093825D002A1DD1C1
:101BF0005746C75DBC460F59002F3ED142468A5812
:101C0000002A42D042468F500A59002A5ED15246DD
:101C1000009B825C93425ED9019FBF5C334A8F5028
:101C200052465746825C0132C2552AE042460D5167
:101C30008D504A468D505A468A58002AD5D00023E6
:101C40005A468B502333C35C002B14D0284A8B5840
:101C50008B50002B0FD00120264A1840013810402D
:101C600082221202944660449A0700D522485B07FC
:101C70009ED522489CE700209AE70A5101224A613A
:101C80008255009B6345B0D1D5E74F46CF59002F11
:101C9000F7D04F46CA510F59002FEED15246009B44
:101CA000825C9342EDD9A327FF00CF59019B9F543B
:101CB0005346C25C0132D2B2C254009B5F1EBA428C
:101CC0000CD09342DDD001220A62DAE701220F51E3
:101CD0004A618255D5E701224A61D2E78022022774
:101CE00092008F50EFE7C046860200001C050000FE
:101CF000C4040000037EFFFF018200000282000096
:101D0000F0B5454657464E46DE46E0B50779834C6A
:101D1000BD009846EB19DB00E6182224A446B44423
:101D20006446247883B0A446002C00D0EAE07B4CC3
:101D3000E250434673606346B36033006446253324
:101D40001C70013B1C708B7B273633704B7B002B48
:101D500030D1A0260B68724CC133FF33F6059B00CF
:101D60009C514B68C133FF339B009C514C68A126AA
:101D7000A44603680C68F6009C516446694E9C5169
:101D80008C68694E9C51002A05D00068097B000BC5
:101D900040B2FEF717FF614BED19ED005C1901230E
:101DA00000202234237003B0F0BCBB46B246A946E3
:101DB000A046F0BDA0230E68594CC136FF36DB05A6
:101DC000B600F4504E68C136FF36B600F450012418
:101DD0000E68A446B440A046A124E400A3464446AD
:101DE0005E469C5164464E68B4405E469C51E02677
:101DF0007600B0460C684444A400A4464B4CA04670
:101E000064464646E650E0267600B14646464C68B3
:101E10004C44A400E650464C2468A246454CA146DA
:101E20000424C046C046C046C046C046C046C04660
:101E3000C046CA4500D0C046013CF2D10024A446A9
:101E40000134A0465C469346624684460194A2242F
:101E5000E4001E5948684446C640344200D053E06E
:101E600040460C68A0402F4C18510420C046C04684
:101E7000C046C046C046C046C046C046CA4500D05F
:101E8000C0460138F2D140460C68A040019C185170
:101E90000420C046C046C046C046C046C046C046F4
:101EA000C046CA4500D0C0460138F2D10132092AE5
:101EB000CDD14B685A4660469B4601235E461C00C6
:101EC000B440A046A02699464346164CF605335129
:101ED00004239C46174B98466346C046C046C046FE
:101EE000C046C046C046C046C046C24500D0C046F7
:101EF000013BF2D14C464B689C402300A124E400F6
:101F0000335126E708204EE75B46834660469446F9
:101F10001A006346002BD0D11BE7C0464C070020B7
:101F20000C0600000C050000240500000D06000052
:101F30006C0000200024F400A02302790168052031
:101F4000DB00C85093009A18034BD2009B18022262
:101F500022331A707047C0464C070020F0B5DE46A9
:101F60004E4645465746E0B589B0009312AB1B7804
:101F700005AE9A4604008946904600210C223000A6
:101F8000FEF73CF953465A1E93415B0102932379B5
:101F900001209A00D5189C468B4B24689B46C2238F
:101FA000ED005D449B004042E0502B002433187844
:101FB000019283465A46C0B2002A56D101221A70B5
:101FC000029B0099AB614B467370434606932B000E
:101FD000B1700C33934686CE86C300994A46197277
:101FE0004346EB61B123DB00E2502B005246213324
:101FF0001A7082232E005A465B00E0502033E050D6
:10200000083BE050143BE0502636F8333070E05087
:10201000033EDB3B3070FF3B2262A260E85C814202
:102020001ED94246165C69482650E85C0130E854E7
:10203000019A63469146644A4B44DB00D258002A19
:102040001BD00020604AD218614B936092687E33A7
:10205000E25009B0F0BCBB46B246A946A046F0BD6E
:10206000029B002B07D16261E2E7C123AA689B00B3
:102070001120E250EDE7E261DAE7534A92209146FF
:102080004B44994623220393009B4A449946019B63
:10209000934600259A4640005B461B78002B4FD1A3
:1020A0000399265826310F78002E59D18E225200DE
:1020B000A358002B4BD0A6502358002B56D00123F9
:1020C0005A46265063611370B945E5D182235B00FF
:1020D000E358002BE0D053468222019300235200A4
:1020E000A350019A63469046374A43449046DB002A
:1020F000434423331B78002B14D0364823582350F5
:10210000002B0FD08222012012029046324C184040
:102110000138204040449A0700D530485B0702D57B
:102120002F4800E00020019B6344D900264B5B58F8
:10213000002B00D08DE7244A52182432137088E710
:102140008E235B002550E550143BE550BEE784220A
:102150005200A658002EB7D0A3502658002E14D0F7
:1021600023505A46012363611370ADE7B94505D882
:10217000029B002B1ED101236361A5E74346DE5D70
:10218000124B0137E6500F7086E7B9459CD9A3235F
:102190004246DB00E358D3554A460B780133DBB2A5
:1021A0000B70511E8B420AD0994500D174E7012370
:1021B000236271E7534601930123E36191E7802392
:1021C00002219B00E150F2E74C0700201C050000B3
:1021D00086020000C4040000037EFFFF01820000AD
:1021E00002820000F0B5DE46574645464E46804620
:1021F000E0B587B003AC8946934600210C2220004D
:102200001F00FDF7FBFF4346254A1B7992469D00C0
:10221000ED185346EA0098184346019219680122C6
:10222000C22352429B00CA5024239846804443460E
:102230001B78DAB29446002B29D101234246237041
:1022400013704B4663705B466246049303008261E1
:10225000A7700C3364CC64C31F725B46C361B123A7
:102260004A46DB00CA500300624621331A703B0025
:102270005A46FFF775FC5346019AD358002B0CD0F1
:1022800007B0F0BCBB46B246A946A046F0BDC1238C
:1022900082689B001120CA50F2E742461370EFE7B4
:1022A0004C070020F0B5DE4657464E4645462322F1
:1022B000E0B5B54C87B0A15C002918D12023E35CC0
:1022C00092209C4626239A46E65CB04B40001D585F
:1022D000002D37D0195001215961A154B4450FD0B8
:1022E00007B0F0BCBB46B246A946A046F0BD92215D
:1022F0000022A64B49005A5008395A5014395A50F6
:102300008223A24A5B00D1580029E9D00021D15094
:102310002325605D002847D1267BB31E012B57D9AA
:10232000220003AB0C3262CA62C3002302A803700E
:1023300024230022E254A3695B07D1D46168236897
:102340009847CDE7E16989468E2149005F58002F03
:102350000AD02127E75D5D501958002951D001218D
:102360001D505961A154B9E7842149005D58002DE1
:10237000B4D05F50195800294AD1B445AED9A32230
:102380004946D2009A588A5552465146A25C0132BB
:10239000D2B26254614601398A426DD094459FD0D1
:1023A00001227A4B1A629BE7220003AB0C3262CA0D
:1023B00062C3774A754902A88B588B5002221A4291
:1023C00002D001230370B3E75B07B1D50270AFE71A
:1023D000E36922699342A3D120216369A2699846E7
:1023E000E361E37B635411400A00571EBA41212781
:1023F000E255032E16D0424620006449FFF7B0FB99
:102400006EE7B44506D8002F2FD101225A6165E747
:1024100039005FE74A46915D5E4A0136995053465E
:10242000E6545DE7594EE337F0512037F051083F4D
:10243000F051143FF051F837F051DB3FFF3FE055CA
:10244000605501303062B060002B11D04246514DD2
:1024500012787251E0552268002A12D04E4B4B4A36
:10246000A360A1687E33D1503AE70122DA614FE7D9
:10247000002978D17061EEE7802202219200995004
:102480008EE792260132C1462327002593469846BF
:102490003E4876000191E35D002B2BD12622924627
:1024A000A25C00928259002A2BD18E235B009C46AD
:1024B000C358002B2AD06346C2508359002B45D005
:1024C0005B4682514361E355009B9845E3D18223EB
:1024D0005B009C46C358002BDDD00023624683502E
:1024E0002323E35C002B00D1FAE6284A284BD1587D
:1024F000D150F5E68E235B008551C550143BC55085
:10250000E5E783515B464361E355DDE784225200F2
:1025100081580029D8D083508259002AF1D1009BDC
:102520009845D1D9A3224946D2008258CA5453466D
:102530005246E35C0133DBB2A3544246013A934274
:102540001CD09845A7D05B460362A4E7009B984542
:102550000BD94A46D25C0133944661460D4A8150FC
:102560005246A35497E7F06175E7019B002B02D117
:102570005B464361A8E70123C361B1E780230222E0
:102580009B00C250DFE7C0464C07002000300040EF
:10259000C40400001C050000860200000FB40B4BB1
:1025A00013B51C68002C05D0A369002B02D12000B4
:1025B00000F070F805AB2000049AA168019300F0C8
:1025C00093F916BC08BC04B01847C04600000020B0
:1025D000002310B50400036043608360818143667B
:1025E0001900C28103614361836108225C30FDF7F9
:1025F00005FE054B6362054B2462A362044BE36254
:10260000044B236310BDC046852E0000AD2E000094
:10261000E52E0000112F000010B5024900F0BAF8B5
:1026200010BDC0461D32000070B568254A1E5543D6
:102630000E002900743100F0D1F8041E08D00021EA
:102640002A00016046600C30A0606832FDF7D6FDBC
:10265000200070BD10B5024800F0BDF810BDC046A6
:102660008807002010B5024800F0B6F810BDC0463B
:102670008807002010B5024800F0ADF810BDC04634
:102680008307002010B5024800F0A6F810BDC04630
:102690008307002013B50400FFF7ECFFA369002BAC
:1026A00002D0FFF7EFFF13BDA364E3642365134B70
:1026B000134A1B68A2620193A34201D10123A361C3
:1026C000200000F01FF86060200000F01BF8A06000
:1026D000200000F017F800220421E0606068FFF796
:1026E00077FF01220921A068FFF772FF0222122161
:1026F000E068FFF76DFF0123A361D2E778360000A1
:1027000019260000F8B50700FFF7A4FF1F4B1E684D
:10271000B369002B02D13000FFF7BCFF4836B46824
:102720007368013B04D53368002B22D03668F6E786
:102730000C22A55E002D1AD12000154B5830E36005
:10274000656600F047F8FFF78DFF2000082229009A
:102750002560A560656025616561A5615C30FDF758
:102760004DFD6563A563A564E5642000F8BD68348C
:10277000D7E704213800FFF757FF041E3060D5D19A
:10278000FFF770FF0C233B60EFE7C0467836000090
:102790000100FFFFF7B5040006000027019148344F
:1027A0006368A5680093009B013B009304D52468EF
:1027B000002CF5D13800FEBDAB89012B08D90E22C3
:1027C000AB5E013304D029003000019B98470743DA
:1027D0006835E8E77047704770470000F8B5032395
:1027E000CD1C9D43083506000C2D1FD20C25A94297
:1027F0001ED8300000F0DEFD25490A681400002CC8
:102800001AD1244F3B68002B04D12100300000F086
:1028100027FB38602900300000F022FB431C2BD13D
:102820000C233000336000F0CDFD03E0002DDEDA34
:102830000C2333600020F8BD23685B1B19D40B2BDD
:1028400003D92360E418256003E06368A2420ED137
:102850000B60300000F0B6FD200007220B30231D76
:102860009043C21A9842E6D01B1AA350E3E7536084
:10287000EFE722006468C2E70323C41C9C43A04224
:10288000E1D0211A300000F0EBFA431CDBD1C7E79E
:102890007407002078070020936810B5013B93600F
:1028A000002B04DA9469A34207DB0A2905D01368D8
:1028B000581C10601970080010BD00F02FFB0100BB
:1028C000F9E7F8B506000F001400D518AC4201D1A5
:1028D000002007E021783A003000FFF7DDFF0134E7
:1028E000431CF3D1F8BD0000F0B5A1B006000C0008
:1028F0001F000392002804D08369002B01D1FFF749
:10290000C9FE8E4B9C421CD17468636EDB0705D4F4
:10291000A3899B0502D4A06DFFF75DFFA3891B0768
:1029200002D52369002B1DD12100300000F060FB8F
:10293000002817D0636EDB070DD50120404221B07F
:10294000F0BD7F4B9C4201D1B468DEE77D4B9C42D9
:10295000DBD1F468D9E7A3899B05EED4A06DFFF71E
:102960003BFFEAE7002308AD6B6120336B76103341
:10297000AB760797039F3B78002B01D0252B4ED1D8
:10298000039BFB1A0593039B9F420DD0059B2100DF
:102990003000039AFFF795FF431C00D1B5E06A6948
:1029A000059B944663446B613B78002B00D1ACE0FF
:1029B00001227B1C0393002352426A6004A9543213
:1029C00052182B60EB60AB601370AB65039B052264
:1029D00019785D4800F0E2FC039B5F1C002820D1C1
:1029E0002A68D30604D5532304A95B182021197043
:1029F000130704D5532304A95B182B211970039BDB
:102A00001B782A2B16D00021EB68039F3A78781C9C
:102A1000303A8446092A4FD9002911D117E00137ED
:102A2000A9E7494B2A68C01A0123834013432B604E
:102A30000397CBE7079B191D1B680791002B01DB50
:102A40000B9304E05B42EB60022313432B603B7863
:102A50002E2B0AD17B782A2B37D1079B02371A1DE0
:102A60001B680792002B2DDB099303223978374826
:102A700000F094FC002807D0344B2A68C01A402389
:102A80008340134301372B6039787B1C0622304882
:102A90000393297600F082FC002845D02D4B002BB3
:102AA00027D10722079B07339343083307936B69AA
:102AB000049A9B186B615DE70A214B4367469B189C
:102AC0000939A3E701235B42CEE700231A0001374F
:102AD0006B603978781C30398446092903D9002B7A
:102AE000C3D00992C1E70A235A4367465218093BEB
:102AF000EFE707AB0093220029003000164B00E0FF
:102B000000BF0490049B0133D1D1636EDB0705D471
:102B1000A3899B0502D4A06DFFF75EFEA3895B0627
:102B200000D50AE70D980AE707AB009322002900B9
:102B30003000094B00F082F8E3E7C046843800001B
:102B4000A438000064380000C4380000CA3800000F
:102B5000CE38000000000000C3280000F7B51500C3
:102B600001938A680B690C000090934200DA13000D
:102B700022002B6043321278002A01D001332B60EF
:102B800023689B0602D52B6802332B60226806233C
:102B900017001F401A4227D0230043331B785A1EC8
:102BA00093412268920630D4220001990098089E31
:102BB0004332B047431C25D0062320682A68E168C9
:102BC00000250340042B03D18D1AEB43DB171D4076
:102BD000A3682269934201DD9B1AED180027BD42CC
:102BE00020D1002010E00137E3682A689B1ABB421D
:102BF000D2DD2200012301990098089E1932B047C6
:102C0000431CF0D101204042FEBD3020E118433189
:102C1000087021005A1C45310978A218433202334A
:102C20001170C1E72200012301990098089E1A3211
:102C3000B047431CE6D00137D1E70000F0B58BB0B8
:102C400006920A0043320793059004920A7E0C0014
:102C5000109B782A06D8622A08D8002A00D1C0E042
:102C6000582A52D026004236327022E010006338D3
:102C70001528F7D800F030FC16001F00F6FFF6FF0D
:102C8000F6FFF6FF1F00F6FFF6FFF6FFF6FFA800BF
:102C900036009A00F6FFF6FFB900F6FF3600F6FFA1
:102CA000F6FF9E0026001A684236111D196013684F
:102CB00033700123A7E0086819680A1D05060BD5C3
:102CC0000D681A60002D03DA2D23049A6D421370EB
:102CD000614B0A27039332E00D681A604106F1D573
:102CE0002DB2EFE70D681968081D18602E0601D592
:102CF0000D6803E06D06FBD50D68ADB2564B0A2793
:102D000003936F2A17D1082715E045310A70524AFC
:102D100003921A68216820CA1A60080650D5CB07AA
:102D200002D52023194321601027002D03D1202331
:102D300022689A4322602300002243331A7063689A
:102D4000A360002B03DB0422216891432160002D46
:102D500002D1049E002B0CD0049E2800390000F004
:102D60004BFC039B013E5B5C33702B0005009F42D4
:102D7000F3D9082F09D12368DB0706D563682269D8
:102D8000934202DC3023013E3370049B9B1B236182
:102D9000079B210000930598069B09AAFFF7DEFE1A
:102DA000431C35D1012040420BB0F0BD2022096800
:102DB0000A4322602200782145321170274AA7E792
:102DC0004806ACD5ADB2AAE71A680D68101D49696E
:102DD000186013682E0601D5196002E06D06FBD558
:102DE00019800023049E2361D2E71A68111D19601F
:102DF000166800213000626800F0D0FA002801D087
:102E0000801B6060636823610023049A1370BFE72E
:102E10002369320006990598079DA847431CC1D035
:102E200023689B0715D4099BE0689842BCDA180018
:102E3000BAE72200012306990598079E1932B04788
:102E4000431CAFD00135E368099A9B1AAB42F0DC12
:102E5000E9E70025F7E7C046D5380000E63800006E
:102E6000002370B5064D040008002B6000F0EAFB5B
:102E7000431C03D12B68002B00D0236070BDC046DB
:102E80008C07002070B50C000E25495F00F0ECFAAD
:102E9000002803DB636D1B18636570BDA389024ABC
:102EA0001340A381F9E7C046FFEFFFFFF8B51F000D
:102EB0008B8905000C001600DB0505D50E23C95EC5
:102EC0000022022300F0EAF9A389054A28001340F2
:102ED000A38132000E23E15E3B0000F075F8F8BDDF
:102EE000FFEFFFFF70B50C000E25495F00F0D6F92B
:102EF000A389421C03D1054A1340A38170BD8022DF
:102F000052011343A3816065F8E7C046FFEFFFFF5E
:102F100010B50E23C95E00F0E3F810BDF8B505004A
:102F20000E001400002804D08369002B01D1FFF7A4
:102F3000B1FB224B9C422ED16C68A369A360A3898C
:102F40001B0732D52369002B2FD023682269F7B2E3
:102F5000981A6369F6B2834205DC2100280000F06C
:102F60005DF9002827D1A3680130013BA3602368E5
:102F70005A1C22601F706369834204D0A389DB0757
:102F800007D50A2E05D12100280000F047F90028B6
:102F900011D13000F8BD0A4B9C4201D1AC68CCE79E
:102FA000084B9C42C9D1EC68C7E72100280000F01B
:102FB0001FF80028C9D001267642EAE784380000CD
:102FC000A43800006438000070B504000800110047
:102FD0001A000023054D2B60FEF7AAFD431C03D108
:102FE0002B68002B00D0236070BDC0468C070020EA
:102FF000374B70B51D6806000C00002D05D0AB697D
:10300000002B02D12800FFF745FB324B9C420FD129
:103010006C680C23E25E93B211072DD4D90611D44B
:1030200009230120336037331343A381404270BD2D
:10303000294B9C4201D1AC68EBE7284B9C42E8D17C
:10304000EC68E6E75B0713D5616B002908D0230025
:103050004433994202D0300000F0BCF9002363638E
:103060002422A3899343A3810023636023692360FF
:103070000823A2891343A3812369002B0BD1A0212C
:103080008022A389890092000B40934203D0210043
:10309000300000F03FF90C22A35E01201A0099B223
:1030A000024003420FD00022A26062695242A26134
:1030B000002022698242BAD10A06B8D540221343C1
:1030C000A3810138B3E7880700D46269A260EFE703
:1030D0000000002084380000A4380000643800009C
:1030E000002370B5064D040008002B6000F08AFA3A
:1030F000431C03D12B68002B00D0236070BDC04659
:103100008C070020F7B58B8905000C001A075FD4E7
:103110004A68002A04DC0A6C002A01DC0020FEBD9B
:10312000E76A002FFAD0002280212E682A601A0058
:1031300049010A400B4234D0606DA3895B0706D574
:103140006368C01A636B002B01D0236CC01A0200A5
:10315000216A00232800E76AB847A189431C06D1E9
:103160002B681D2B31D82C4ADA40D3072DD50023EC
:10317000636023692360CB0405D5431C02D12B680F
:10318000002B00D16065616B2E600029C6D0230042
:103190004433994202D0280000F01CF900206063FB
:1031A000BDE701232800216AB847431CC5D12B681D
:1031B000002BC2D01D2B01D0162B01D12E60ADE704
:1031C0004023A2891343A381A9E740230B43FAE7D5
:1031D0000F69002FA2D00A680F60D21B0192002253
:1031E0009B0700D14A69A260019B002B00DC95E798
:1031F0003A002800019B216AA66AB047002806DC35
:1032000040230120A28940421343A38187E7019B09
:103210003F181B1A0193E7E7010040200B6970B5C6
:1032200005000C00002B02D10025280070BD0028ED
:1032300004D08369002B01D1FFF72CFA144B9C4278
:103240001BD16C680C22A35E002BEDD0626ED207FE
:1032500004D49B0502D4A06DFFF7BDFA280021001D
:10326000FFF750FF636E0500DB07DED4A3899B05E3
:10327000DBD4A06DFFF7B0FAD7E7064B9C4201D133
:10328000AC68DFE7044B9C42DCD1EC68DAE7C0466F
:1032900084380000A43800006438000070B50400D1
:1032A000080011001A000023054D2B6000F0C2F940
:1032B000431C03D12B68002B00D0236070BDC04697
:1032C0008C07002070B50E001D000E23C95E14008F
:1032D00096B0002907DA00232B60B3891B0611D4AE
:1032E0008023DB000FE06A4600F0D2F80028F2DB12
:1032F000F02301991B021940054BC9184B42594153
:103300002960EDE740230020236016B070BDC04661
:1033100000E0FFFFF7B502268B8905000C00334261
:1033200006D0230047332360236101236361F7BD87
:103330006A4601ABFFF7C6FF009907002800FFF7B8
:103340004DFA002808D10C22A35E9A05EFD403227F
:1033500093431E43A681E4E70F4BAB628023A2890F
:1033600020601343A381009B20616361019B002BBC
:103370000DD028000E23E15E00F09CF8002806D056
:103380000322A38993431A0001231343A381A08935
:103390000743A781CBE7C04619260000C9B28218AF
:1033A000904201D10020704703788B42FBD001305E
:1033B000F6E7000010B50248FFF70DFA10BDC04651
:1033C0008407002010B50248FFF706FA10BDC0467A
:1033D0008407002070B50500002910D00C1F236859
:1033E000002B00DAE4182800FFF7E4FF1D4A1368F9
:1033F000002B05D1636014602800FFF7E3FF70BD68
:10340000A34208D9216860188342F3D118685B6829
:1034100041182160EEE71A005B68002B01D0A3423F
:10342000F9D911685018A0420BD12068091850181A
:1034300011608342E0D118685B68411811605360E5
:10344000DAE7A04202D90C232B60D5E72168601887
:10345000834203D118685B6841182160636054603F
:10346000CAE7C0467407002070B5040008001100C8
:103470001A000023054D2B60FEF768FB431C03D1A7
:103480002B68002B00D0236070BDC0468C07002045
:10349000002370B5064D0400080011002B6000F0F9
:1034A000B9F8431C03D12B68002B00D0236070BDFA
:1034B0008C070020002370B5064D040008002B6027
:1034C00000F0B0F8431C03D12B68002B00D0236020
:1034D00070BDC0468C07002003B471464908400007
:1034E0004900095E49008E4403BC7047002243082E
:1034F0008B4274D303098B425FD3030A8B4244D3BC
:10350000030B8B4228D3030C8B420DD3FF220902FD
:1035100012BA030C8B4202D31212090265D0030BBC
:103520008B4219D300E0090AC30B8B4201D3CB03B2
:10353000C01A5241830B8B4201D38B03C01A5241F4
:10354000430B8B4201D34B03C01A5241030B8B42F6
:1035500001D30B03C01A5241C30A8B4201D3CB02E1
:10356000C01A5241830A8B4201D38B02C01A5241C6
:10357000430A8B4201D34B02C01A5241030A8B42C9
:1035800001D30B02C01A5241CDD2C3098B4201D3E1
:10359000CB01C01A524183098B4201D38B01C01A5F
:1035A000524143098B4201D34B01C01A52410309D6
:1035B0008B4201D30B01C01A5241C3088B4201D385
:1035C000CB00C01A524183088B4201D38B00C01A32
:1035D000524143088B4201D34B00C01A5241411A59
:1035E00000D20146524110467047FFE701B5002066
:1035F00000F006F802BDC0460029F7D076E7704714
:103600007047C04658220120014B40421A60704763
:103610008C07002058220120014B40421A6070475D
:103620008C0700205822024B00201A607047C046C9
:103630008C07002058220120014B40421A6070473D
:103640008C070020044A03001068002802D0C31829
:10365000136070470148FAE77C07002090070020BC
:10366000F8B5C046F8BC08BC9E467047F8B5C046E1
:10367000F8BC08BC9E46704704000020FFFFFFFF17
:10368000FFFFFFFFFFFFFFFFFFFFFFFF0000000046
:103690000000000000E0D701030000004F766572D3
:1036A000666C6F770D0A00004150505F4552524FD3
:1036B000523A4552524F523A466174616C0D0A00BB
:1036C000436F6C6F7220303A2025640900000000BF
:1036D000436F6C6F7220313A2025640900000000AE
:1036E000436F6C6F7220323A20256409000000009D
:1036F000436F6C6F7220333A20256409000000008C
:10370000436F6C6F7220343A20256409000000007A
:10371000436F6C6F7220353A202564090000000069
:10372000436F6C6F7220363A202564090000000058
:10373000436F6C6F7220373A2025640D0A00000039
:10374000B400000048656C6C6F2050432066726FB7
:103750006D206E6F726469632044657669636521CC
:10376000210D0A00546F67676C65204D6F746F728E
:1037700020446972656374696F6E0D0A0000000071
:1037800053656E736F720D0A00000000436C6F7317
:10379000696E67205541525420636F6E6E65637485
:1037A000696F6E00000000000000000000000000D3
:1037B0000000000000000000010000000100000007
:1037C00001000000000000000000000000000000F8
:1037D00001000000010000000100000000000000E6
:1037E00000000000000000000100000001000000D7
:1037F00001000000000000000000000000000000C8
:1038000000000000010000000100000000000000B6
:1038100000000000000000000000000000000000A8
:10382000010000000B00000009000000080000007B
:103830000A0000000100000000E0D7010030004055
:1038400000000000FFFFFFFFFFFFFFFFFFFFFFFF84
:10385000FFFFFFFF000000000000000000E0D701B4
:103860000300000000000000000000000000000055
:103870000000000000000000000000000000000048
:103880000000000000000000000000000000000038
:103890000000000000000000000000000000000028
:1038A0000000000000000000000000000000000018
:1038B0000000000000000000000000000000000008
:1038C00000000000232D302B2000686C4C00656642
:1038D0006745464700303132333435363738394161
:1038E0004243444546003031323334353637383977
:0C38F00061626364656600000000000077
:0838FC000CC8FF7F0100000071
:10390400040000200000000084380000A4380000F7
:103914006438000000000000000000000000000007
:103924000000000000000000000000000000000093
:103934000000000000000000000000000000000083
:103944000000000000000000000000000000000073
:103954000000000000000000000000000000000063
:103964000000000000200040000000000024F400DB
:103974000020004000000000E9000000C100000039
:040000030000176D75
:00000001FF
